:020000040000FA
:020000000928CD
:040002000034003492
:080008002C20A2008B100B104C
:1000100009000000000083160313E030860085010C
:100020008701880198308B00C7308100FF3096002F
:100030008312031385018601870188010130A00026
:10004000CF3088000030A200871722183328A2186A
:100050004A2822195A282528861B0134061B0234F7
:10006000861A0434080020186A28A0183A28201993
:100070003A2825280130A1002019A00320082102D8
:10008000031C45284328A2006E2821082002A20054
:10009000A2176E2820185128A0186A282019512864
:1000A00025280230A1002019A00320082102031CEA
:1000B0004528432820186128A018612820196A289B
:1000C00025280330A1002019A00320082102031CC9
:1000D0004528432887148601D1202428A21B712893
:1000E0007428A21897287728A218C228A628201DAD
:1000F0008828023085000715B03088000330A00042
:10010000D120A43088000230A000071185016A28A0
:10011000023085000715A43088000230A000D120ED
:10012000F93088000130A000071185016A280230EB
:1001300085000715B03088000330A000D120A4301E
:1001400088000230A000071185017728201CB528FF
:1001500001308500F93088000130A000D120A430A2
:1001600088000230A00085016A2801308500A43093
:1001700088000230A000D120B03088000330A000F9
:1001800085016A28013085000714F93088000130A4
:10019000A000D120A43088000230A0000710850103
:1001A000A6281430A300FA30A400FA30A5000000FD
:0E01B000A50BD728A40BD528A30BD328080035
:02400E00FD2093
:02401000FF3F70
:00000001FF
